:020000040800F2
:100000000050002079010008F10F0008F50F0008EA
:10001000F90F0008FD0F000801100008951D0008E9
:10002000951D0008951D0008951D0008F141000868
:10003000951D0008951D000871420008B51D0008B7
:10004000951D0008951D0008951D0008951D0008C8
:10005000951D0008951D0008BD100008C31000087C
:10006000C9100008CF100008D5100008810F000843
:10007000910F0008A10F0008B10F0008C10F000880
:10008000D10F0008E10F0008B10D0008951D000810
:1000900009250008951D0008951D0008DB100008C3
:1000A00015200008392000085D2000089120000874
:1000B000E1200008ED200008F9200008A51A00083A
:1000C000BD1A0008B11A0008C91A0008951D0008D9
:1000D000951D0008BD230008D5230008ED23000866
:1000E000E3100008951D0008951D00080348044B07
:1000F000834202D0034B03B118477047900400209D
:10010000900400200000000005480649091A8910E3
:1001100001EBD171491002D0034B03B1184770476E
:1001200090040020900400200000000010B5064C50
:10013000237843B9FFF7DAFF044B13B10448AFF358
:1001400000800123237010BD9004002000000000F7
:100150004469000808B5054B1BB105490548AFF3D4
:100160000080BDE80840FFF7CFBF00BF00000000DF
:10017000940400204469000801498D46014908475C
:10018000005000208901000808B50F4B1A680F4B7A
:100190009A4213D100210E4B0E4A934210D305F020
:1001A0004BFF00221146104603F02EF9FEE752F8ED
:1001B000040B43F8040B8B42F9D3EBE70649FAE74B
:1001C00043F8041BE9E700BFF0B500080000002079
:1001D00090040020582E0020900400200D4B10B5F4
:1001E0001A680AB90C4A1A601A680C49891A8142BD
:1001F00004DB09494442511AA14207DA05F016FF0F
:100200000C234FF0FF320360104610BD10441860FD
:10021000FAE700BFAC040020582E002010BE0028D2
:10022000704700000B4910B50A23092209680A48E3
:1002300000F028FD0949032302220968084800F05C
:1002400021FDBDE8104007491B231A220968064812
:1002500000F018BDE4010020B0040020E8010020F7
:10026000C8040020EC010020E004002010B5044682
:1002700000F0F0FD034B2046BDE81040197800F077
:1002800082BD00BF160000202DE9F0470546046836
:1002900001F00EFE002329684A0102F18442136036
:1002A000802222600122A2622361E3606B79626195
:1002B00073B193420FD001212B685A015B0102F107
:1002C000844203F18443C2F880121960BDE8F087CC
:1002D0004FF4004363644FF6FF73002448F6FF7742
:1002E0004FF0FF084FF06809CB62661C5FFA86FA90
:1002F0005146284601F0E6FDB0B12A681AF0010F18
:1003000002F1340343F8247014BF00230823183289
:10031000641052F8241008FA03F021EA000109FAE7
:1003200003F30B4342F82430042E3446DDD1C2E7F8
:1003300038B50025264A274C1368022043F01003E5
:10034000136000F0D3FE002001F00AFC6560236812
:10035000182023F40023236001F00EFC102001F08C
:100360000BFC00F043F8A560102001F0F9FB102011
:1003700001F01FFC0028FAD000F039F8164801F00F
:1003800025FC182001F0ECFB182001F012FC0028DD
:10039000FAD0022001F0D4FB00214FF0006001F000
:1003A000B3FB0E4801F0F8FC00F038F80C4B18884D
:1003B00000F03BFD0B4800F03DFD0B4801F062FDF5
:1003C00000F02EF800F02DF8FFF72AFF38BD00BF2F
:1003D00000200240001002400C0000203F190100E4
:1003E000140000206D0200088902000870470021F7
:1003F00008B5084601F038FC4FF48061012001F097
:1004000033FC0021022001F02FFC2D2001F03CFCE8
:10041000BDE808400021032001F026BC00F070BEBA
:10042000704700F0ABBE704770470000084A10B537
:1004300013680446013B002B136002DA054803F001
:1004400073FFD4F88400BDE8104003F087BF00BFFD
:10045000F82D00209670000808B5D0F8840003F04D
:1004600072FF024A13680133136008BDF82D0020A3
:1004700010B50446044B03F1080220330260836088
:1004800003F08EFF204610BDA470000810B504468E
:10049000FFF7EEFF204602F0C1FF204610BD00002E
:1004A00070B50446C06818B102F0B8FF0023E360DD
:1004B0000021112002F0B4FF0021112002F0E8FF1A
:1004C000642003F01FF80121112002F0E1FF042055
:1004D00002F0A0FF054603F02EFFA562BC2002F04B
:1004E00099FF0546A66A4FF4A072F02104F0EAFBDA
:1004F000C5F8846000260E4B31462B602846C5F8AF
:10050000B860E56004F01AFDE068032104F0AAFC7D
:100510003146E06804F0F8FFE0680649064B074AF8
:1005200005F0A1FBE0680121BDE8704005F08DBB3E
:1005300048700008587600084876000838760008A9
:1005400010B5204C204600F0E4FB4FF4E13120468A
:1005500000F0DCFB204600F0DCFB4FF4E1312046EC
:10056000194C00F0D3FB194800F076F8204600F053
:1005700008FA2046012100F022FA2046002100F06E
:1005800042FA1021204600F00EFA342002F042FF19
:1005900004464FF4C8730A220D4903F0E9FE0D4BDF
:1005A00003F108022033A36000232260C4E903336F
:1005B000C4E90533C4E907336362BDE8104003F0C2
:1005C0002BB900BFB0040020582900208870000813
:1005D0008D700008A470000870470000044608B53C
:1005E00019491A4800F0B0F80021184800F060F8E6
:1005F0002046FFF755FF0021E06804F085FF14480E
:1006000000F02AF850220A21E06804F0A1FE00223E
:100610000F49E06805F0C3FA0A2003F089FE0A20BA
:1006200002F070FF0B4800F017F864220A21E0681E
:1006300004F08EFEE0680022064905F0B0FA0A20B8
:1006400003F076FEFEE700BFA0860100F828002038
:10065000987000089D7000080FB437B50D4C06ABBC
:1006600053F8042B40F2FE312046019305F018FEAA
:100670000023094D2146284684F8FF3300F06CFB27
:100680000649284600F068FB03B0BDE8304004B0DE
:10069000704700BFF8040020B0040020C8700008B4
:1006A000FFF74EBFFFF798BF036801211B6818478B
:1006B000C26D90F85810406D01F008B903685A688F
:1006C00022F4E0625A601A6822F001021A600023E4
:1006D00080F82330704708B50146406DFFF7EEFF04
:1006E00000234B6508BD38B5011D044600230122D7
:1006F000406D00F039FE45B2691C10D1606D836811
:100700005A050ED513F0020F14BF02250325FFF77B
:10071000D5FFE26D94F85810606D01F0D7F8E8B29B
:1007200038BD13F4006F14BF01250425EFE7000066
:1007300008B5044B01460360406DFFF7BFFF084654
:1007400008BD00BFD470000810B50446406D0368B2
:100750001B68DB070AD5E165FFF7B0FFE26D94F88F
:100760005810606DBDE8104001F0B0B810BD000039
:100770000748084B084A0360084B09491B68436552
:10078000002380F85830074BC36505F081BA00BFDD
:10079000F8280020D4700008080000203C720008EF
:1007A00031070008A086010001398B000121026891
:1007B00099405160704703689A689107FCD59A6820
:1007C0001206FCD47047436823B1417B00221846CF
:1007D00001F0BCBB7047000010B50C4601F0AAF94F
:1007E00078B10128084B18BF002300225B089C4207
:1007F00004D20132072A4FEA5303F8D1034B985C25
:1008000010BD034BF1E700BF00A24A04DCB50008AD
:1008100000512502162808B504D01728074818BF2C
:10082000002008BD012000F0C3FC054B03F10802C5
:1008300000280CBF18461046F3E700BFE8B50008D3
:10084000E4B500082DE9F04F804687B0007989466D
:10085000FFF7E0FF60B30578174C46782D0105EBF4
:10086000040B877890F803A036015846FFF7ABFFDA
:100870003319184604EB0717059304EB0A1AFFF720
:10088000A2FF3846FFF79FFF5046FFF79CFF9AF8FC
:100890000C20059B03923A7B494602921B7B2A5906
:1008A00001933359404600939BF80C3001F047FA0E
:1008B00007B0BDE8F08F00BF106E0008002370B5D0
:1008C00001220446C0E90733A28122862422636004
:1008D000C4E91033A3624B1E02FB034319480129EC
:1008E00020606062A364184E07D0022926D0174A00
:1008F0008A21174802F054FD01E0164B1C60164B8C
:10090000164D1B68216823611879FFF765FF2B6876
:10091000A060A36140F20233A3823368616A63631B
:100920001879FFF759FF2B680022E36340F2045364
:100930002387A36CE062DA73204670BD336863637B
:10094000074BDBE700093D003C01002096700008E2
:10095000E4700008A4290020380100204400002091
:10096000A8290020806C037B4268012B0CBF002368
:1009700080231343017A427B43F44073006901F002
:10098000CCB910B50446836C186901F09CF9A36CCE
:1009900001211869FFF756FF2046FFF7E3FF012208
:1009A000A36CDA7310BD836C99601B6901F0380188
:1009B0001A68136823F03803194311607047836C79
:1009C00019731B691A68136823F0800309B943F08F
:1009D000800313607047F8B507460C46836C04F437
:1009E00000641869596003681E681D6801F07AF98F
:1009F000BB6C26F400661B6934431B6805F00605D2
:100A00002C431C60F8BD836C5973836C01F00301A7
:100A10001B691A68136823F00303194311607047B8
:100A200082B010B5044602A981E80C009DF81410AC
:100A3000FFF7C5FF9DF81510FFF7E5FF0399FFF7D6
:100A4000CAFFA36C02991B691879FFF7C5FE01461E
:100A50002046FFF7A8FFBDE8104002B0FFF791BFA6
:100A60007047836C10B51C6923682046DA68D9602A
:100A7000FFF7A1FE2368D868C0B210BD70B50E465E
:100A8000836C1D692B682846DA680A12DA60FFF762
:100A900092FE2B68DC68DE60FFF78DFE2B68240277
:100AA000D868A4B2204480B270BD7FB50546144614
:100AB0000E46836CE401986900F0E7F9A86C44F0F5
:100AC00012044368417DA3F5006253425341026919
:100AD0001268CDE9013400960C32806900F036FAD4
:100AE0000022AB6C597D986904B0BDE8704000F0FD
:100AF000DDB9000070B504460D4611B90025284641
:100B000070BD836C597D9869FFF74EFEA36C2A4631
:100B1000597D986900F0E8F90322A36CDA73597DD6
:100B2000986900F0FBF9A36C186901F0FCF8A26C5D
:100B3000136A002BE2D1936913491E68537D0D6837
:100B4000013B9B00DBB23068D840800719D40868AD
:100B5000401B6428F7D902251069FFF72CFEA36C0F
:100B6000186901F0E6F8A36C597D986900F0E2F984
:100B7000A36C597D9869FFF717FE0122A36CDA7305
:100B8000BDE70025E8E700BF042E002038B5044685
:100B900015461A46FFF789FF29462046BDE838402A
:100BA000FFF7A8BF01210148FFF788BE58290020A0
:100BB000054B064A1A6002F580625A604FF4806263
:100BC0009A6084229A817047AC29002000F80108BD
:100BD000C38882889B1AC2888188914282BF028919
:100BE00001329B1898B2704710B5036904465868E3
:100BF000FFF7EEFF88B123695B689A88196892B2A3
:100C0000885C99881A89C0B292B28A420FBF0022CA
:100C10009A88013292B29A8010BD4FF0FF30FBE704
:100C200008B503695868FFF7D3FF08BD03695B681F
:100C30009988DA8892B28A421FBF9A881B6892B25A
:100C4000985C14BFC0B24FF0FF30704702699168E2
:100C50008888CB889BB28342FAD1126813685B06FE
:100C6000FCD5704713B504698DF8071001220DF10A
:100C70000701204601F090FA0028F7D0012002B0C9
:100C800010BD000030B54FF0000C4FF47A75C0E98C
:100C900001C5034D016105600275437530BD00BF9C
:100CA000387100082DE9F74303690446DB6888467C
:100CB0008B42914625D3067D134D3601AB19477DF6
:100CC000586818B10022597B01F040F9206901F001
:100CD00019FACDF80490AB191B7B390100936A18FF
:100CE000AB5969582069127B01F01BFB2069424611
:100CF000002101F03BFB206903B0BDE8F04301F0A7
:100D000027BA03B0BDE8F083106E00080022FFF799
:100D1000C9BF006901F026BAF8B506460C4615466B
:100D20008F18A74206D0336814F8011B1B683046A1
:100D30009847F6E72846F8BD70B505460C460846C4
:100D400049B105F079FA2B68024621462846BDE8EC
:100D500070409B68184770BD03685B681847FEE7E2
:100D600010B50446007900F04DFF2079BDE8104031
:100D700000F060BF0268936823F46023194341F4D4
:100D8000801191607047002330B51C461D4603EB6F
:100D90004302072B01FA02F203F10103D8BF154306
:100DA0000A2B44EA0204F2D10368DD601C6130BD05
:100DB00070B5134C21680B681D68A80706D51A6822
:100DC00022F002021A608B6803B198476A0708D5BF
:100DD000226811680B6823F004030B60136903B1E8
:100DE0009847EB070AD5226811680B6823F00103C6
:100DF0000B60D36813B1BDE87040184770BD00BFE9
:100E00001C000020036801225B0103F1844303F509
:100E10008673194641F8042918680028FCD143F864
:100E2000042C0B68002BFCD170470146042000F015
:100E30001BBF000010B50446044B1868A047044BC4
:100E400018682346BDE81040184700BF1C0000206A
:100E50002000002010B50446FFF782FF20464FF423
:100E60006021FFF787FF012123682046BDE810407D
:100E700003F1404308335A015B0102F1844203F15C
:100E8000844311651960FFF7BDBF007900F0BABE59
:100E900038B550F8313005464C1E2BB19847012328
:100EA0002A68A400A340536038BD000070B5142424
:100EB00001394C430368054608331B591646DB07C6
:100EC00004D5074ADC21074802F06AFA2B68083388
:100ED0001A5922F4405242EA06321A5170BD00BF3C
:100EE000547100087A71000870B5142401394C431C
:100EF0000368054608331B591646DB0704D5054A27
:100F0000EA21054802F04CFA2968083121444E6074
:100F100070BD00BF547100087A7100081422036884
:100F2000013902FB01310123490101F18441C1F87A
:100F30000031704714220368013902FB013100239C
:100F4000490101F18441C1F8003170472DE9F041B8
:100F500014251C4690464B1E5D430668FFF7EAFFCA
:100F60009DF81C30240244EA8324089B08361C4365
:100F7000069B77197451FB60C7F80880BDE8F081C3
:100F8000024B01211868FFF783BF00BF4400002017
:100F9000024B02211868FFF77BBF00BF440000200E
:100FA000024B03211868FFF773BF00BF4400002005
:100FB000024B04211868FFF76BBF00BF44000020FC
:100FC000024B05211868FFF763BF00BF44000020F3
:100FD000024B06211868FFF75BBF00BF44000020EA
:100FE000024B07211868FFF753BF00BF44000020E1
:100FF000012007E0022005E0032003E0042001E0D7
:101000000520FFE70D4A0121116072B60C4A00214C
:101010001160074902B4084902B486B005498E46FA
:10102000704700BFAFF30080AFF30080AFF30080E4
:1010300000000061F9FFFFFF8D33000814ED00E0B0
:1010400010E000E0084B10B553F8302004464AB1D8
:1010500003EBC003586890470120044BA04058613F
:1010600000BF00BF10BD00BFBC290020000401402C
:101070002DE9F84F0546894600274FF0010B0D4E2C
:101080000D4CD6F814A004EBC0044D4504D977618B
:1010900000BF00BFBDE8F88F0BFA05F81AEA080F89
:1010A00005D023681BB16068984747EA08070135F7
:1010B0000834EAE700040140BC2900200020FFF7C3
:1010C000C1BF0120FFF7BEBF0220FFF7BBBF032057
:1010D000FFF7B8BF0420FFF7B5BF09210520FFF7D0
:1010E000C7BF0F210A20FFF7C3BF0000034A1368E0
:1010F00023F0070318431060704700BF0020024030
:1011000008B5074802F01AFA064802F017FA06482E
:1011100002F014FABDE80840044802F00FBA00BF1C
:10112000880000209000002098000020A0000020EF
:1011300070B50F250368CE0801F00700840053F84E
:101140002600092A05FA04F520EA050514BF104611
:101150000820A0402843082A43F8260006D101228F
:10116000D8688A4020EA0200D86070BD092AFCD104
:101170000122D8688A400243DA60F6E708B5032006
:1011800000F040FDBDE80840032000F053BD000022
:10119000064B0028B7BF9A695A6820F000401043F8
:1011A000AABF104398615860704700BF000001401B
:1011B000034B0028B4BF9B695B68184040B270477E
:1011C00000000140002808DB0123421100F01F004D
:1011D00003FA00F0014B43F82200704700E100E001
:1011E0000268536823EA010151607047772318466B
:1011F0000138FDD8704770B5044600F034FC226811
:10120000136843F400431360012215462169002945
:101210004FD163691868A37F866802FA03F31E4200
:1012200024D01B040361FFF7E1FF236903B9A3691D
:1012300001221968E37F02FA03F31B040B61FFF735
:10124000D5FF236903B9A369E17F1B688A401A614E
:10125000FFF7CCFF236903B963691A680123A17FF3
:101260008B401361002223681A6070BDE37F02FA8D
:1012700003F3E1B9A069006880680342F9D0FFF781
:10128000B5FF236903B9A3691968E37F02FA03F381
:101290001B040B61FFF7AAFF236903B9A36919684F
:1012A000E37F05FA03F30B61FFF7A0FFAEE7084603
:1012B000E1E70B46AEE710B5044690F8200000F0D9
:1012C000A1FC94F8200000F0B5FC2046BDE81040D9
:1012D00000F000BC2DE9F341044615460126204FDD
:1012E000DFF8808094F92130002B07DB5A1103F0DE
:1012F0001F0306FA03F3203247F8223094F9220044
:10130000002807DB431100F01F0206FA02F2203327
:1013100047F8232094F823305BB28DF80330E3685C
:101320000193FFF74FFF94F92100FFF74BFF9DF862
:10133000030040B2431C0ED09DF803305BB28B42D9
:101340000CD0002DCED0D8F80030019A9B1AAB42B9
:10135000C8D96FF0010002B0BDE8F0810020FAE7C3
:1013600000E100E0042E0020F8B51F4690F823307D
:101370000546012B0E46144605D0284A40F273114B
:10138000274802F00DF8002C3ED0264B013B41D0FF
:101390002A68916911F00201F8D10C2000FB046069
:1013A000C5E90161AC83013CA4B220F8061C0C38ED
:1013B000002CF8D11C4B28461B68EB60032385F8F2
:1013C0002330012313605461536843F44073536026
:1013D0007388D9074CBF40F2015340F20113022138
:1013E00013603A46FFF776FF04464FF4E061284663
:1013F000FFF7F6FE54B1FF2385F82330A31C03D179
:10140000AB6843F48043AB602046F8BD012385F808
:101410002330F9E76FF00104F6E700BFD071000850
:10142000ED71000841190100042E0020F0B50025DF
:10143000036885B01A68044601925A690292954A77
:1014400003951268C260426A970600F1DF80426825
:1014500022B350889588C607029940F19680CF073D
:1014600005D51288520042F001021A6116E0029975
:101470008E072AD5012D019A12DC22F48062019296
:101480001A609A690392019A42F4007201921A60FA
:10149000002D31D05A6842F480625A6005B0F0BD28
:1014A000022D0BD142F4006201921A609A690392F4
:1014B000019A22F4806201921A60EBE742F48062A2
:1014C00001921A609A690392E4E702980299400631
:1014D00001F0040133D5002933D1032D01DC012DA6
:1014E00024D11869D38891685E1CD680C85493882B
:1014F000013B9380012DD1DCA38B013B9BB2A383E5
:10150000002B7ED04FF480612046FFF769FE6368B0
:1015100003F10C02DB89626013F0010F14BF40F28B
:10152000015240F2011223681A60B7E7AB1E012B8B
:10153000E0D84FF480612046FFF752FEDAE7002939
:10154000ACD0032D1BD1019921F480610191196068
:101550001869D38891685E1CD680C8549388022D80
:1015600003F1FF33938099D1236891681869D38878
:101570005D1CD580C8549388013B9380BCE7022D45
:10158000E6D1019941F40071E0E7C90707D51DB123
:10159000596841F4806159601288520065E70299E8
:1015A0008F0744BF996903910299029E01F080015F
:1015B000760707D4002D14BF0E4641F00106002E19
:1015C0003FF46CAFADB1D0889668471CD780305CD3
:1015D00018616B1E938000293FF460AF012D7FF4EA
:1015E0005DAF4FF48061204605B0BDE8F040FFF7E5
:1015F000F7BD42075FBF019A42F4007201921A6080
:101600007AE76360022384F8233047E7029A97075A
:1016100047D59A6985600392039AD6060FD4039A38
:1016200012F0800F9A682ED0100428D59D68DB68D0
:1016300025F0FE05AD05AD0D03F0FE031D43039B34
:10164000606B13F0040327D038B1C3882BB1E36A71
:1016500003B198470022636BDA80206B40B100230E
:10166000A26A058083801D4602B19047236BDD800E
:101670002268536843F4806353600323C3E7DD6843
:10168000C5F34605DBE711049D68F9D5C5F30905E7
:10169000D5E700BF042E00200028E9D00580C380D4
:1016A000E6E7029AD20615D59B69406B039338B1E1
:1016B000C3882BB1E36A03B198470022636BDA80D9
:1016C000019B226843F48063019311680B4313600C
:1016D000012398E7029D029A05F0040512F08002AA
:1016E00018BF5A68996918BFC2F380220391039901
:1016F00011F0040120D0016BE1B18888CE88801BF5
:1017000015433FF4CBAE00258DF8025039B130B10E
:10171000CD888E686F1CCF80715D8DF802109DF8AA
:101720000210C9B2196100285DD0002A3FF4B6AE9C
:10173000012854E70846E3E78DF80310029A406B4E
:1017400012F0400216BF59681146C1F38021B8B1AA
:101750008688C288B61AA9B1BDB9002E7FF741AFFD
:101760001B698268DBB28DF80330C388032E03F156
:101770000101C1809DF80310D1543FF78FAE30E7CF
:101780000646E8E7002D3FF489AE032E25D1019AE5
:1017900022F4806201921A601B69002EDBB28DF880
:1017A000033006DDC38882685D1CC5809DF8030098
:1017B000D05400293FF472AE2368012E1B69DBB2BE
:1017C0008DF803307FF70DAF636BDA889968501C92
:1017D000D8809DF803308B5403E7022EDCD1019AA8
:1017E00042F40072D6E7002A3FF458AEF9E600BF93
:1017F00013B5036804465A6900929A6901921C4A1B
:101800001268C260009A02F470628260426A9206B4
:101810001DD54FF48061FFF7E3FC03681A6842F4BA
:1018200080621A60009A510518D56FF48062406B8F
:101830005A6138B1C3882BB1E36A03B198470022DB
:10184000636BDA80012384F8233002B010BD009A64
:10185000520542BF1A6842F400721A6000222368DF
:101860005A619A61FF2384F82330019BEDE700BFA2
:10187000042E00200068436824234360114B9A42E1
:10188000114B19D9890745BF19214A4302EB42027E
:10189000B3FBF2F258BFB3FBF2F24FF00B034CBFB5
:1018A00042F4404242F40042C2F30B0109B942F053
:1018B0000102C261036270475200B3FBF2F22523BA
:1018C000F2E700BFA086010000512502F8B54F4B9A
:1018D00004461B680D469842174607D14B0705D5AD
:1018E0000220FFF755FC40F60903E3832046FFF78B
:1018F000E2FC4FF4E0612046FFF772FC22682E07FD
:10190000136823F0010313604FF0000384F82330C1
:1019100003D5FFF770FC25F00805E80544D52268DB
:101920002046136823F00103136000F09CF80122A5
:10193000E37F26699A40002E64D1A3691868836802
:101940001342F8D00121A37F01FA03F3002E5BD1EB
:1019500061690968D1F808C01CEA030FF6D01E04BB
:101960000E618E683342FCD11604066186683242ED
:10197000FCD1026186683242FCD00B618A68134256
:10198000FCD0204600F044F8226825F480751368E6
:1019900043F400431360FFF729FC2268136823F423
:1019A00000431360FFF722FC204600F031F83A466E
:1019B00029462046FFF75EFF94F92100FFF702FC5D
:1019C00094F92200FFF7FEFB2368A9061A686562F6
:1019D00042F001021A6011D52A0642BF1A6842F08D
:1019E00040021A601A6822F400621A601A6842F40F
:1019F00080621A605A6842F440725A60012384F887
:101A00002330F8BD334699E73146A2E73C7200081F
:101A100090F8203010B5122B044612D1036903BB95
:101A2000826912790C2A0CD103B963691B790C2BDA
:101A300007D140F60903E28B9A4202D10220FFF758
:101A4000A7FB206900B960690F22A17FFFF770FB37
:101A5000206900B9A069E17F0F22BDE81040FFF7BF
:101A600067BB1A46DDE7026970B50446C2B98069F2
:101A70000123E17F056803FA01F62E6102B962696C
:101A8000A57F1268AB4013610722FFF751FB206965
:101A900000B96069A17F0722BDE87040FFF748BB2D
:101AA0001046E5E70148FFF7C1BC00BFA8000020D1
:101AB0000148FFF7BBBC00BFE00000200148FFF772
:101AC00097BE00BFA80000200148FFF791BE00BFED
:101AD000E0000020002190F9210000F001B8000092
:101AE0000028A8BF00F160404FEA0111B8BF054BC4
:101AF000C9B2B5BF00F00F0000F56140195480F87D
:101B00000013704714ED00E010B5002421F060418F
:101B100021F07F01064A0143916060B20F21013438
:101B2000FFF7DEFF2B2CF8D1F02382F8233010BD15
:101B300000ED00E0014B13F810007047F972000847
:101B4000064B5A6822F0030202435A6080005A682A
:101B500002F00C028242FAD1704700BF001002402E
:101B6000030AC2B2012003F1804303F5043319686C
:101B700090400843186070470121030A03F1804335
:101B800003F504331A68C0B201FA00F022EA000239
:101B90001A607047030A03F1804303F504331A689F
:101BA0000123C0B203FA00F0104214BF184600200F
:101BB0007047030A03F1804303F504331A680223D4
:101BC000C0B203FA00F010407047000038B5436817
:101BD000054618201C68FFF7DDFF20B1064A832167
:101BE000064801F0DDFB064A2968536823F47413A4
:101BF0000B432343536038BDDD7200088E7200082A
:101C00000010024010B50446FFF794FF074B53F84D
:101C10002020074800EB4400437803EBC203012275
:101C20009B0003F184431A6010BD00BF180100201F
:101C3000F972000810B50446FFF77CFF084B53F813
:101C40002020084800EB4400437803EBC203012244
:101C50009B0003F184431A6000221A6010BD00BF8C
:101C600030010020F972000810B5054A054C536890
:101C700054F8200023EA00030B43536010BD00BF5B
:101C8000001002404072000810B50446FFF752FFF2
:101C9000074B53F82020074800EB4400437803EB40
:101CA000C20300229B0003F184431A6010BD00BFF1
:101CB00024010020F972000801EBC000800000F14F
:101CC00084400260704710B504460079FFF79AFF20
:101CD0002079BDE81040FFF7ADBF01220621006862
:101CE000FFF7EABF002206210068FFF7E5BF0268A0
:101CF00038B55468034624F0E004546012680D4679
:101D00004A4012F4205F01D0FFF7ECFF1A68184632
:101D10001560BDE83840FFF7E0BF1343194341F0B9
:101D20000401FFF7E4BF0122006811460430FFF709
:101D3000C3BF0068002201210430FFF7BDBFF8B522
:101D40001046069C9DF81C709DF820609DF824505C
:101D500081B10B2239462046FFF7EAF904223146C9
:101D60002046FFF7E5F90B2229462046BDE8F8405A
:101D7000FFF7DEB919460422FFF7DAF904223946E3
:101D80002046FFF7D5F90B2231462046FFF7D0F960
:101D90000422E9E7FEE700000722024B58601A60C0
:101DA000704700BF10E000E0014B1860704700BFB3
:101DB0003C2A0020044A136801331360034B1B685C
:101DC00003B11847704700BF042E00203C2A0020B2
:101DD00011F0010F70B501F1FF340DBF082500258A
:101DE0006FF0FF016FF47F410068C4F340041830C6
:101DF00050F8246013433140AB400B4340F824308B
:101E000070BDF8B507680646FD683B691D4015F0D2
:101E1000400403D0046A0CB1A0474024EB0604D56B
:101E2000B36913B1984744F01004280704D57369C7
:101E300013B1984744F00804690704D5336913B116
:101E4000984744F00404AA0704D5F36813B19847EF
:101E500044F00204EB0704D5B36813B1984744F08B
:101E60000104E4433C61F8BD02684B1E02F14042AC
:101E700020329B0003EBC20301229B0003F1844349
:101E80001A60704710B504460548A0470548A047AA
:101E90000548A0472346BDE810400448184700BF46
:101EA00050010020780100209C010020C00100208A
:101EB00010B504460079FFF7A5FE2079BDE8104073
:101EC000FFF7B8BE38B54B1E032B0C46057905D974
:101ED0000E4A40F205110E4801F062FA1E2D10D98B
:101EE000212D0ED0202D0ED9222D01D0252D04D14B
:101EF000022C8CBF0020012038BD631E584258417F
:101F0000FAE70120F8E70020F6E700BF5573000864
:101F1000767300080022036803F140430C3301EBA1
:101F2000C3039B0003F1844302311A6040F821206F
:101F3000704738B504460D4613460022FFF748FFA8
:101F400029462046BDE83840FFF78EBFF8B54D1E44
:101F5000EBB2032B04460E46174604D92A4AD92170
:101F60002A4801F01DFA6379022B06D0042F0CD801
:101F7000DFE807F00C1D34374300254ADC212348F5
:101F800001F00EFA6379022BF0D1F8BD31462046FC
:101F9000FFF7C0FF2368AD0003F14043203305EB9A
:101FA000C3050023AD0005F184452B60EDE7002259
:101FB000236803F140430C3306EBC3039B0003F19A
:101FC00084431A600823602231462046FFF700FF51
:101FD00031462046BDE8F840FFF746BF00231022F7
:101FE000F2E74FF2F11223689A6103229A6001220C
:101FF0005B0103F184431A60C7E731462046BDE820
:10200000F8400122FFF795BFC473000876730008FB
:10201000E0730008074A10B51468E36821690B40B3
:102020001B0605D5536A1BB198476FF080032361E7
:1020300010BD00BF50010020074A10B51468E368C6
:1020400021690B40DB0705D593681BB198476FF0FA
:102050000103236110BD00BF50010020F8B50B4DF6
:102060002F68FE683B691E4016F0400403D02C6ABE
:102070000CB1A0474024B30604D5EB6913B19847CF
:1020800044F02004E4433C61F8BD00BF500100204F
:10209000F8B5124D2F68FE683B691E4016F010041B
:1020A00003D0AC690CB1A0471024310704D56B698B
:1020B00013B1984744F00804720704D52B6913B193
:1020C000984744F00404B30704D5EB6813B198476C
:1020D00044F00204E4433C61F8BD00BF500100201D
:1020E0000148FFF78EBE00BF780100200148FFF7CE
:1020F00088BE00BF9C0100200148FFF782BE00BFE0
:10210000C001002010B5002204463F214368103072
:102110009A801860DA801981A36894F890009A80F8
:10212000DA8004F1500219811A60FFF76BFD94F90F
:102130009130002B08DB0122591103F01F0302FA32
:1021400003F3024A42F8213010BD00BF00E100E075
:102150000368DA6842F02C02DA60DA6842F400526E
:10216000DA60704710B5026883689C88D98889B2A4
:10217000A142FAD1D1688C0402D511684906F9D57B
:10218000D16821F40051D16041688A8892B2CA8036
:102190009A8892B2DA8010BDF0B506460468856868
:1021A0000020AF88EB889BB2BB4204D123681B069A
:1021B00001D5824210D1E36823F08003E3609042AE
:1021C000B3680DD39A88DB889BB293421EBFE36845
:1021D00043F08003E360F0BD0B5C01306360E0E737
:1021E000DD889F880135BD42ECD0DF881D89ADB206
:1021F000BD4203D19D88ADB2002DE3D0DD8811F83A
:1022000000C01F68ADB207F805C0DF881D89013026
:10221000ADB2BD420FBF0025DD880135ADB2DD8016
:10222000CDE7F0B585B001AB064600241F460A2570
:10223000B1FBF5F005FB1012092902F1300204F19F
:10224000010403F8012B04D814F1FF3403D205B0C4
:10225000F0BD0146ECE73B5D8DF8033001220DF146
:1022600003013046FFF798FF0028F7D0ECE7D3686A
:1022700070B59B0609D513689E0606D513689D07A1
:1022800002D41368DC071CD55368D368180617D529
:1022900013681B0614D58888CB889BB283423BD039
:1022A0008B8808689BB2C05C8C880B89C0B29BB2DB
:1022B000A3420FBF00238B8801339BB28B805060F9
:1022C00070BD5468C38885880133AB42E4B20568A9
:1022D00007D0C68803899BB2B3420FD183889BB2D3
:1022E00063B983889BB2EB5C868803899BB2B34257
:1022F0000FBF0023838801339BB28380C3889BB2C6
:10230000EC54C48803899BB2A3420FBF0023C38847
:1023100001339BB2C380B8E7D36823F08003D36056
:10232000CEE770B51E460546084611460422059CB8
:10233000FEF7FEFE0B229DF810103046FEF7F8FE69
:102340002A686302D16803F4F05321F4F0510904C0
:10235000090C0B43D3601369240223F440531B047C
:1023600004F440541B0C1C43146170BD70B5064648
:1023700015460C4641B900F045F8044620B90D4A0F
:10238000AE210D4801F00CF819226243AD00642122
:10239000B2FBF5F2B2FBF1F001FB10231B0132336B
:1023A000B3FBF1F303F00F03346843EA00139BB26D
:1023B000A36070BDF973000805740008024A034960
:1023C0000348FFF754BF00BF003801404C2A0020EB
:1023D000402A0020024A03490348FFF748BF00BFD4
:1023E00000440040642A0020582A0020024A034981
:1023F0000348FFF73CBF00BF004800407C2A002094
:10240000702A002008B590F89000FFF793FB20B1E8
:102410000128034818BF002008BD0248FCE700BFA0
:1024200000A24A040051250230B548F28005094C4B
:10243000226822F4804222F070022A434240226045
:10244000236823F4E04323F040032B434B402360F5
:1024500030BD00BF005C0040284B072818BF187033
:102460001A78052A48D8DFE802F003131E232B361A
:102470004FF6FB71224A106C014011644FF43F414A
:10248000116406221A701F4B1B685A7B1A7370471F
:102490004FF6FB711A4A106C014011644FF43F4132
:1024A0001164042202E002225A7003221A7006E02C
:1024B0005A78013AD2B25A705A78002AF1D070474D
:1024C0000F490A6C92B242F010020A6405221A7097
:1024D0000A225A7070475A78013AD2B25A705A7822
:1024E000002AECD14FF6EF720549086C02400A64ED
:1024F000044A1268517B11730622D7E70C2E002084
:10250000005C0040AC0300202DE9F047664D674AAF
:102510002B68546C1B68A4B22340580506D56FF491
:1025200080635364624B1B685B6898472B681B6829
:102530002340990442BF6FF400515C4A5164DA04AD
:1025400006D56FF4C052594B00205A64FFF784FF40
:1025500028680268224013050FD554490B6C9BB2C2
:1025600043F0080643F00C030E640B64037B4373D3
:10257000032303736FF4C0534B64970542BF6FF49A
:1025800000714A4B5964D60506D56FF48072474BEB
:1025900007205A64FFF760FF2B681B681C4020046B
:1025A00007D56FF4004848F60F79404F7C6C230440
:1025B00001D4BDE8F08714F00F06C7F844804BD172
:1025C00048F680033E681E42F0D0B3B2DFF8F080D8
:1025D000384D03F44052202103F030034FF40050F3
:1025E0002B80A8F80020FFF71FFFE10606F080030C
:1025F00018D42BB9304A4FF4A271304800F0D0FE05
:102600002A4A136823F4E14323F070031B041B0CD4
:10261000136000F099FD2988B8F80000BDE8F04784
:10262000FFF702BF43B13B6823F4E14323F070039B
:102630001B041B0C3B60ECE73B68320523F0700386
:102640004FEA03534FEA13533B6002D500F0A2FB5D
:10265000E1E700F0FDFCDEE7B40004F1804404F59E
:10266000B844D4F800A01AF4004F0DD023682A68AB
:1026700023F070031B051B0D2360926806F1804355
:10268000013B52F8233098471AF0800F8ED0236810
:1026900006F1804603EA090323602B68013E5B686C
:1026A00053F82630984781E7AC030020005C0040D7
:1026B000142E00200A2E0020567400086A740008A8
:1026C000082E0020800000F1804000F5B84003682B
:1026D00023F4804323F0700343F4004343F080036A
:1026E000594001607047000018B90722024B1B686F
:1026F0001A820248704700BF3C2E00201C040020B4
:10270000002201214FF4E0500A4B1B689A720A4BD9
:1027100019640A4909681A645A6418644FF43F40FE
:102720005A64086018644FF48010054B18600A73EF
:10273000704700BF3C2E0020005C0040AC0300202E
:1027400000E100E037B5114C2268127802F07F02F8
:10275000212A02D0022003B030BDA0F12003012BBA
:102760000B4B0C4D1B6888BF00252BB18DF8070063
:102770000DF1070102209847002DEBD023680024BB
:102780009D615C822046A8472046E4E73C2E00205D
:10279000882A0020E926000813B5104B1A68137820
:1027A00003F07F03212B17D1022806D0222811D154
:1027B00093780B4A03F0030313700024094B1B6842
:1027C0002BB18DF807000DF1070102209847204634
:1027D00002B010BD0224F1E70224F8E73C2E0020ED
:1027E0008C2A0020882A002021B901288CBF0220D1
:1027F0000020704702207047054B1B689B78032B15
:1028000004D8044901EBC30100F096BA00207047D8
:102810003C2E002004040020014900F08DBA00BFC6
:10282000C0030020014900F087BA00BFC8030020A0
:102830002DE9F04700254FF0C00948F68F1648F201
:1028400080074FF0400A434B434C1B68DFF8388148
:102850009D7283F80990256523682846334043F428
:1028600000732360236803EA08033B4383F01003EB
:102870002360226D394B520043F802A08022236D61
:102880005B0003F1804303F5C0431A60236823F41F
:10289000E24323F070031B041B0C2360304B1B68C6
:1028A00093F82C1000F072F84FF440512846FFF7CF
:1028B00009FFA3682946334043F4C063A360226D37
:1028C000284B520013444FF480721A60A268022011
:1028D00002EA08023A4382F02002A260FFF7F2FE09
:1028E000E36851463340E360226D1F4B52001344AE
:1028F0004FF4887203201A6000F048F84FF44051FA
:102900000320FFF7DFFE636829461E406660226DE4
:10291000164B520043F802906368012003EA080353
:102920003B4383F020036360FFF7CCFE0122104B92
:1029300028461B681A7300F0EBFBFF220D4B1D604D
:102940000D4B1D600D4B1D600D4B1D600D4B1A7026
:10295000BDE8F0873C2E0020005C0040086000408D
:10296000142E0020206000403860004010600040BD
:10297000AC030020902A0020942A00209C2A0020EA
:10298000A02A0020982A0020BF8FFFFF0F4B104A7B
:102990001B6D3E2903EBC0004FEA400002440DD9F5
:1029A0004B09C80604BF03F1FF339BB2C1F3090111
:1029B00041EA832141F40041116070474B08C80788
:1029C00048BF013341EA8321F6E700BF005C0040C5
:1029D0000C60004010B5064C18B9012223681A8219
:1029E00010BD044B1B681B68984720680A30F7E746
:1029F0003C2E0020382E002010B5064C18B90122BC
:102A000023681A8210BD044B1B689B689847206896
:102A10000C30F7E73C2E0020382E00201E4B10B55E
:102A20001C68002310B90223238210BD1B480380B9
:102A30002178024611F07F0112D1617A8C0644BFE1
:102A400002230370037848064CBF23F0010343F0D0
:102A500001031370124B1B681B6998470F48E4E78A
:102A60000129E2D0022915D1217901F00F039B0041
:102A700003F1804303F5B84309061B6805D503F04D
:102A80003003102BE6D10123E3E703F44053B3F501
:102A9000805FF7E71846C8E73C2E00200E2E002086
:102AA000382E00202DE9F843234FDFF8A0803D6841
:102AB0002C8AD4B92E7A042E17D120490B78012BF9
:102AC0000ED11F4B1A681F4B92B213445B001C605F
:102AD00030230C70A8F800303B681E72BDE8F88304
:102AE00010230726A8F80030F6E7AB8A9C4294BF73
:102AF000042602269C4228BF1C46AB692046984704
:102B00008146002000F0B2FB22460146484600F014
:102B10004AFB2146002000F0C5FB2B8A4FF44052AF
:102B20001B1B2B826B8A1C443023A8F80030064BF9
:102B30006C821A80D0E700BF3C2E0020A42A00201F
:102B4000505C004002300020082E00200A2E002099
:102B500010B50A4B0A491B6849789A7891420AD302
:102B6000D97841B99C8834B99A72064B1B685B6866
:102B70009847204610BD0220FCE700BF3C2E0020F5
:102B800000040020382E002038B50F4A0F4D12687F
:102B90002B6892699978187990472B6804469A7A3D
:102BA0007AB170B95A7962B9DB7853B9084B1B68AE
:102BB000DB6898472B681A79DA729A781A7320467C
:102BC00038BD0224FBE700BF142E00203C2E00205D
:102BD000382E002038B52B4B1B68187810F07F007A
:102BE00004D15A7A22F020025A7238BD022847D105
:102BF0005A88002AF9D15A79002AF6D11979224D3A
:102C000021F08000840004F1804404F5B844226877
:102C100049B22D780029B4BF02F0300202F44052CC
:102C200085422DD962B39B7A53B30029236811DA08
:102C300003F03003102B07D1C4B2204600F003FB91
:102C40003021204600F0D7FA104B1B685B6998478B
:102C50000020CAE703F44053B3F5805FF4D10C4D74
:102C600058B90C4B93F82C1000F02AFB23682B402A
:102C70009BB283F440532360E6E700F0D1FAF5E716
:102C80000220B2E73C2E002000040020382E002055
:102C90008FBFFFFFD003002038B51B4B1B4D1868BA
:102CA0002D78017921F08004A30003F1804303F51E
:102CB000B8431A6849B20029B4BF02F0300202F4E6
:102CC0004052A5421DD94488DCB9D2B1827AC2B142
:102CD0001A680029B5BF22F4E04222F4804222F0B3
:102CE000400222F07002B5BF92B292B282F010029E
:102CF00082F480521A60064B1B689B69984700203B
:102D000038BD0220FCE700BF3C2E0020000400205C
:102D1000382E002008B5064B1A68537A43F020037A
:102D20005372044B1B68DB699847002008BD00BF45
:102D30003C2E0020382E0020054B10B51C68628AFE
:102D400018B98B889B1A238210BD08681044FBE7D2
:102D50003C2E002008B50B4B002093F82C1000F0FF
:102D6000AFFA094B1B68187A082806D14FF4805235
:102D7000064B1A801022064B1A80A0F10903584214
:102D8000584108BDD00300203C2E0020082E002012
:102D90000A2E002073B5994D994E2B6831681A7A26
:102DA000092A13D0974A89B20A4452001288520065
:102DB00002F1804202F5C0421178197051785970C1
:102DC00091885980118999809289DA8001221A723A
:102DD000DA885C78002A64D11A7812F07F024DD12B
:102DE000092C03D1FFF7B4FE40BB16E0052C20D11F
:102DF00093F90220002A07DA08232A68137202B026
:102E0000BDE87040FFF7A6BFDA78002AF4D19A88AF
:102E1000002AF1D19B7A002BEED132687A4B92B224
:102E2000134400225B001A603022784B1A8006237C
:102E3000E3E7032C14D19A78012A08D0744B20467A
:102E40001B685B699847032828D10923D5E79A882E
:102E5000002AF3D15B7A9A06F0D5FFF75BFFC3E750
:102E6000012CEBD19A78012AE8D19A88002AE5D181
:102E70005B7A9B06E2D5FFF7ADFEB5E7012A04D1E8
:102E80000B2CDBD1FFF780FEAEE7022AD6D1012C56
:102E9000F1D0032CD2D1FFF7FFFEA5E70028BCD06C
:102EA000AAE7062C13D11A7854065BD1DB78584A6E
:102EB000012B126803D1D369002B53D01AE0022BE7
:102EC00001D1136AF8E7032B4CD1536AF4E7002CC5
:102ED00054D15988002945D15A6822F0FF02B2F531
:102EE000003F3FD11A7812F07F0216D19B88002B49
:102EF00038D1484B00242A68204654829361984771
:102F000020464FF6FF712B681A8A8A4233D0022876
:102F100001D0002A55D108222EE0012A0AD13C4ACC
:102F20001879126892699047E0B92B689B7A002B58
:102F3000DFD117E0022A15D11A7902F00F018B00B8
:102F4000100603F18043344803F5B8431B6800784A
:102F50004CBF03F0300303F44053884202D912F00F
:102F6000700FE4D02A4B2A681B6850781B69984779
:102F70000328C6D12B6809221A7240E7082C04D115
:102F80001B785B06EED1254BB4E70A2CEAD11A7800
:102F900002F07F02012AE5D19A7A002AE2D059880C
:102FA0000029DFD15A6822F0FF02B2F5803FD9D163
:102FB000174A18791268926990470028D2D1184BA5
:102FC00098E793F90010002937DAD9881048019161
:102FD0000068019D90F82C00AA4284B205D9019A9C
:102FE0001A829C82FFF75EFD09E78A42F9D2A2426B
:102FF0001AD200210B4A1170F3E700BF3C2E0020CB
:10300000505C004004300020023000200A2E0020D6
:10301000142E00201D2A000800040020D5290008D5
:10302000F9290008A42A0020B2FBF0F100FB1122CC
:10303000002AD6D1044A0121DDE703221A724FF497
:103040004052024B1A80DAE6A42A0020082E002003
:10305000F8B5294E3468237A032B01D0052B43D1D0
:10306000A369B3B1258A0DB3A28A954228BF15463C
:1030700028469847238A07465B1B2382638A0020E1
:103080002B44638200F000F92A460146384600F0DE
:1030900099F8238A53B100214FF44052174B084648
:1030A0001A8000F0FFF83022154B1A80218AA38A7B
:1030B00032688B4208D803231372137A3268137272
:1030C000BDE8F840FFF746BE09B10523F4E7062343
:1030D00013720C4B18680C4B80B203445B001960F0
:1030E0003021074B1980E8E7072B03D1074B1B68FA
:1030F000DB6898470823E1E73C2E0020082E0020DB
:103100000A2E0020505C004002300020142E0020C7
:1031100030B5002248F68F75094B1C78A24204D3C3
:10312000084B40F08000186030BD930003F18043ED
:1031300003F5B84319682940114319600132EDE7DE
:10314000000400204C5C004010B5134C23681A7A30
:10315000022A01D0042A09D1FFF7A4FC23681B7AB4
:1031600022681372BDE81040FFF7F4BD062A10D1A3
:103170005A78052A09D11A78520606D19878FFF7AD
:10318000C7FF064B1B681B6A9847054B1B689B686B
:1031900098470823E4E700BF3C2E0020382E00208B
:1031A000142E0020704701F10051013201F5405109
:1031B0005210490002B9704730F8023B013A21F839
:1031C000043BF7E701F1005101F540514900F0B52A
:1031D0000B460546540801EB8406B34206D1D307DB
:1031E00044BF11F8243000F81430F0BD53F8047BCC
:1031F00025F8027BF1E7800000F1804000F5B8403F
:103200000368CA0623F4E04323F040039BB248BF9F
:1032100083F010038A0648BF83F0200303607047E1
:10322000800000F1804000F5B84003685B0409D5D8
:10323000036823F4E04323F070031B041B0C43F4E6
:10324000804303607047800000F1804000F5B84083
:1032500003685B0609D5036823F4E04323F0700399
:103260001B041B0C43F0400303607047054B1B68B5
:103270009BB203EBC00000F1005000F5405040004D
:1032800000887047505C0040044B1B689BB203EB06
:10329000C000034B03445B0018887047505C00403B
:1032A00004300020044B1B689BB203EBC000034BAF
:1032B00003445B0019607047505C004002300020FE
:1032C0000D4B0E4A1B683E299BB203EBC000024423
:1032D0004FEA42020AD94B09C80604BF03F1FF3383
:1032E0009BB29B0243F40043136070474B08C9072D
:1032F00048BF01339B02F7E7505C004006300020D6
:1033000013B504468DF8071001220DF10701204680
:10331000FEF742FF0028F7D002B010BD38B50546D1
:103320004C1E14F8011F01B938BD2846FFF7E8FF0D
:10333000F7E7000008B5144B03221C680D21204656
:10334000FDF7F6FE002301211A464FF000504FF41E
:103350000055B2F5007F0BD06AB1B3F5007F01D103
:1033600000230A449A420BD9266835610133F0E7FD
:103370004FF0FF31F1E7B3F5007F4FF00101EFD0DF
:1033800026683061F2E700BFCC71000808B5034B36
:103390000BB1AFF3008062B6FFF7CCFF0000000076
:1033A000F8B5144B06460D4617460BB3AFF3008035
:1033B00004461149FFF7B2FF39462046FFF7AEFF3A
:1033C0000E492046FFF7AAFF31462046FFF7A6FF29
:1033D0000B492046FFF7A2FF29462046FEF721FFB2
:1033E0000A212046FFF78CFF0D212046FFF788FFBA
:1033F000FFF7CCFF00000000397500084F7500088A
:1034000050750008FCF794BF08B5FDF749F9FDF7C2
:1034100049F9FCE702F034BE02F032BE02F038BED9
:10342000222838B50ED808290DD8144B00015C5C51
:10343000134B144A1D18525C1858297BFDF778FE6F
:10344000686838B938BD104A4C21BDE838400F488B
:10345000FFF7A6BF697B24B1BDE838400122FEF723
:1034600075BD02684B1E02F1404220329B0003EB07
:10347000C2039B0003F184431C60E3E75C75000812
:10348000106E0008537500089670000865750008F6
:10349000222810B50ED8084B00011C181B58B1FA91
:1034A00081F11A680123207B49098340090103FA4D
:1034B00001F1116110BD00BF106E00082DE9D84860
:1034C0000D480E4B1A68816800BF00BF1C6894420B
:1034D000F8D100270A4E4822B6EB010B67F1000C29
:1034E00000235846614602F0D9FB4FF47A7303FB80
:1034F0000400BDE8D88800BF10E000E0042E0020E2
:103500004019010038B50446FFF7D8FF05465CB105
:1035100000F013F8FFF7D2FF401BB0F57A7FF6D327
:10352000013C05F57A75F5D138BD28B10C2343432C
:10353000013B18460138FDD87047704710B5044666
:103540000079FEF75FFB2079BDE81040FEF772BB03
:10355000064A13681968064B19B94FF0FF321A6012
:1035600070471268D268D2685268F8E7AC2A002027
:10357000642D0020F8B51B4B1B4E1C6805463068B7
:103580000F46043000F043FF334640B90120316854
:10359000164EC96A3268884022EA000232606A1C0C
:1035A00007D137B1196812480431BDE8F84000F07E
:1035B0000BBF1A686419546007D30E4A1068196863
:1035C000BDE8F840043100F00BBF0B4A10681968E1
:1035D000043100F005FF094B1A68A24288BF1C6045
:1035E000F8BD00BFAC2D0020A82A0020342D0020FB
:1035F000842D0020B02A0020AC2A0020642D002059
:1036000080B5DFF86480144F144C154E236863B9FD
:10361000144B1B68012BF8D94FF08053C8F80030C9
:10362000BFF34F8FBFF36F8FEEE700F001FEFB6833
:10363000DD68281D00F0EBFE3368013B3360236832
:10364000013B236000F008FE286B00F069FE28466D
:1036500000F066FEDAE700BF982D0020242D002040
:10366000202D0020B42A002004ED00E02DE9F84FC1
:103670009600814630460D469A4600F023FE0746E6
:1036800098B1542000F01EFE044658B1076332463C
:10369000A521384602F012FDD4F830B045B984F8BF
:1036A000345013E0384600F03BFE4FF0FF3588E021
:1036B0006B1E04F134020F3513F8011F02F8011BD1
:1036C00009B1AB42F8D1002384F843300A9D4FF092
:1036D00000081E2D28BF1E25271DE562656438469B
:1036E000C4F84880043E00F06CFEC5F11F0504F1EB
:1036F00018005E4400F065FEC4F84C802461A561AA
:10370000646284F850805246494626F0070000F073
:1037100061FD0B9B206003B11C6000F089FD304B04
:10372000304E1A68DFF8E88001321A603568002DE3
:103730004AD134601B68012B1FD1C1464846013570
:1037400000F034FE1F2D09F11409F7D1DFF8C49001
:10375000254D484600F02AFE284600F027FE234863
:1037600000F024FE224800F021FE224800F01EFE58
:10377000214BC3F80090214B1D600125204A2149AF
:103780001368086801331360E26A05FA02F3034321
:1037900014200B6000FB0280394600F015FE00F09B
:1037A0005BFD194B1B6863B13368DA6AE36A9A42BE
:1037B00007D24FF08052154B1A60BFF34F8FBFF303
:1037C0006F8F2846BDE8F88F0F4B1B68002BD4D1B4
:1037D0003368E26ADB6A9A4228BF3460CDE700BFF3
:1037E000202D0020A82A00204C2D00206C2D002028
:1037F000982D0020842D0020AC2A0020B02A002023
:10380000302D0020342D0020802D002004ED00E01C
:10381000B42A0020382D002013B50024134B009447
:1038200001934FF48072234611491248FFF71EFF9F
:10383000012818D100F03CFB012814D14FF0BF0340
:1038400083F31188BFF36F8FBFF34F8F4FF0FF32B9
:10385000094B1A60094B1860094B1C6002B0BDE8A7
:10386000104000F0C7BC02B010BD00BF602D0020AA
:10387000E871000801360008642D0020802D00202A
:10388000AC2D0020024A136801331360704700BF5B
:103890002C2D0020014B1868704700BFAC2D002074
:1038A0002DE9F84F2E4B1B68002B53D12D4B1D6873
:1038B00001351D605DB92C4A2C4B116818681060E9
:1038C0002B4A1960136801331360FFF741FE294F3B
:1038D00000263B68AB4207D9274B1B68002B0CBF67
:1038E00030460120BDE8F88FDFF87CA0DFF8949027
:1038F000DFF894B0DAF800301B681BB94FF0FF33E3
:103900003B60E9E7DAF80030DB68DC6863689D4219
:10391000F6D304F10408404600F079FDA36A1BB118
:1039200004F1180000F073FD01231420E26AD9F8B5
:10393000001093400B4300FB02B04146C9F8003031
:1039400000F042FD0D4BE26A1B68DB6A9A4228BF19
:103950000126CFE70A4A0026136801331360BBE74C
:103960002C2D0020AC2D0020AC2A0020B02A0020F5
:10397000682D0020642D0020B02D0020A82A0020F2
:10398000282D0020342D0020B42A00202DE9F843F2
:1039900000F04EFC2A4B1A68013A1A601C682CB1E0
:1039A000002400F059FC2046BDE8F883254B1B6835
:1039B000002BF5D0244D254EDFF8A4801FE0EB68E6
:1039C0000127DC6804F1040904F1180000F01FFD70
:1039D000484600F01CFD1420E26A316807FA02F341
:1039E0000B4300FB02804946336000F0EDFC184BAE
:1039F000E26A1B68DB6A9A4201D3164B1F602B6890
:103A0000002BDCD10CB1FFF7A3FD134D2C6844B1A2
:103A10000127104EFFF744FF00B13760013CF9D198
:103A20002C600C4B1B68002BBAD04FF080520B4B14
:103A30001A60BFF34F8FBFF36F8F0124B1E700BF50
:103A40002C2D0020202D00206C2D0020342D002056
:103A5000A82A0020B02D0020282D002004ED00E031
:103A6000B42A002008B540B94FF08052084B1A60C4
:103A7000BFF34F8FBFF36F8F08BDFFF703FF002128
:103A8000FFF778FDFFF782FF0028EDD0F4E700BFD5
:103A900004ED00E01E4B70B51A681E4B12B10122F6
:103AA0001A6070BD1C4C1A6023681B6B1A68B2F157
:103AB000A53F0BD15A68B2F1A53F07D19A68B2F180
:103AC000A53F03D1DB68B3F1A53F04D0206821688E
:103AD000343100F0F1FB114B1B68B3FA83F314206F
:103AE000DBB2C3F11F0300FB03F20D498D186E68B2
:103AF000083276680A44964200FB031308BF7268D6
:103B00006E6008BF6A605B68DB682360C9E700BF5E
:103B10002C2D0020B02D0020A82A0020342D0020BC
:103B2000B42A002010B50C46054B1968183100F076
:103B300057FC2046BDE810400121FFF71BBD00BF28
:103B4000A82A002038B514460D46084B19681831CC
:103B500000F03AFC002C214608BF2846BDE838405A
:103B600018BF4FF0FF30FFF705BD00BFA82A0020A7
:103B700038B5C368DC6804F11805284600F047FC36
:103B8000114B1B68E3B9251D284600F040FC0123BA
:103B90000E49E26A08689340034314200B602946EB
:103BA0000B4B00FB023000F00FFC0A4BE26A1B6873
:103BB000DB6A9A4285BF0120074B0020186038BDA0
:103BC00029460648EFE700BF2C2D0020342D0020A9
:103BD000B42A0020A82A0020B02D00206C2D00203F
:103BE000034B1B680360034B1B684360704700BFB7
:103BF000682D0020AC2D002070B50C46054600F065
:103C000017FB0F4B196823685A1C10D00D482E68FB
:103C100000686A68864201D08A420FD9881A8342B6
:103C20000AD95B1A134423602846FFF7D9FF002402
:103C300000F012FB204670BD002323600124F7E74B
:103C4000AC2D0020682D00200122014B1A60704726
:103C5000B02D0020014B1868704700BFA82A002033
:103C6000054B1B6833B1054B1B68002B0CBF0220B2
:103C70000020704701207047802D00202C2D00204F
:103C80002DE9F0410446002836D0234AC36A116862
:103C90001746C96A8B4237D2142682691F4D002A03
:103CA000A8BF3A6806FB0353A2BFD26AC2F11F0243
:103CB000826142699A4221D100F10408404600F035
:103CC000A6FB174B48B9E06A4643AA592AB9012115
:103CD0001A68814022EA01021A603A681968D26AB9
:103CE000E262012404FA02F00843186014204146FD
:103CF00000FB025000F068FB204603E03B68DB6AF3
:103D0000C3620120BDE8F0811368406CDC6AA04208
:103D10002CBF00200120F5E7A82A0020B42A0020AB
:103D2000342D0020F8B5044608B90020F8BD836C96
:103D3000C16A426C013B91428364F6D0002BF4D1FE
:103D4000051D284600F063FB104E114A50B914219E
:103D5000E76A794373582BB901201368B84023EA06
:103D600000031360636CC3F11F01A161E3620124CE
:103D7000116804FA03F0084310601420294600FB80
:103D8000036000F021FB2046D0E700BFB42A0020EA
:103D9000342D0020F8B50446002834D0436C9942F5
:103DA00038BF1946C36A8B422DD0826C012A2AD1B2
:103DB0001426154D826906FB0353002A4269C1622D
:103DC000A4BFC1F11F0181619A421CD1071D384671
:103DD00000F01DFBE26A0D4C40B95643AB592BB9BC
:103DE00001212368914023EA010323600123142069
:103DF000216893400B432360394600FB0250BDE825
:103E0000F84000F0E1BAF8BDB42A0020342D0020BB
:103E1000044B1A681AB119688A6C01328A641868EE
:103E2000704700BFA82A0020F8B50D4C00F000FA3A
:103E300025688DB90B4F0C4E384600F0B7FA304666
:103E400000F0B4FA094B2A461F60094B10210A20E2
:103E50001E6000F0ADFB2060BDE8F84000F0FCB94A
:103E6000E82D0020BC2D0020D02D0020B42D0020F6
:103E7000B82D0020914208B5416000610AD8D21ADD
:103E800083699A420DD2084B011D186800F0A8FA08
:103E9000002008BD9A4201D2994202D2011D034B73
:103EA000F3E70120F5E700BFB82D0020B42D002076
:103EB00007B5FFF7B9FF084B186850B1074B4FF42F
:103EC0008072019303230649009306480023FFF7FD
:103ED000CDFB03B05DF804FBE82D0020EC2D0020A5
:103EE000C0750008953F00087FB50E4C0546206858
:103EF00016461A4678B10529CDE9001602950CDC64
:103F0000FFF7AEFE002302280CBF089A1A46694646
:103F1000206800F06BFB04B070BD0023694600F020
:103F200015FCF8E7E82D00202DE9F3414FF00008DB
:103F3000164D2B681A6832B9154A1168136029604A
:103F400002B0BDE8F081DB68DC681E68271D3846DA
:103F500000F05DFA236A2046984794F824305B0706
:103F6000E7D5A36933449E4206D263602461394693
:103F7000286800F035FADCE70023CDF800803246EF
:103F800019462046FFF7B0FFD3E700BFB42D00204D
:103F9000B82D00202DE9F04F684E87B0B146336848
:103FA0001D684DB30024DB681D68FFF76BFCFFF74D
:103FB00071FCDFF898B18246DBF80030D8469842B1
:103FC0005F4F1BD3CBF8000004B35E4B1B681A682D
:103FD000B2FA82F25209A5EB0A01386800F01AFD24
:103FE000FFF7D4FC80B94FF08053574A1360BFF3FA
:103FF0004F8FBFF36F8F07E00124D6E7FFF794FFE1
:10400000CBF800A0FFF7C2FC002532E0854228D89B
:10401000FFF7BCFCD9F80030DB68D3F80CB00BF12B
:10402000040000F0F4F99BF82430580714D5DBF8AD
:1040300018102B46524629445846FFF71BFF30B153
:10404000009423462A4621465846FFF74DFFDBF8E9
:10405000203058469847D7E723F001038BF82430E7
:10406000F5E72246B7E7039B05999847029B002B8B
:104070000ADA002202A9386800F0A2FB00288ED0DC
:10408000029B0498002BEEDB049C6369A3B9FFF745
:1040900001FCD8F800308346984201D2FFF744FF74
:1040A000029BC8F800B0092BE3D8DFE803F0090948
:1040B0000929303F09092930201D00F0A8F9E6E759
:1040C00094F82430A16943F0010384F82430039B61
:1040D0005A4619442046FFF7CDFE0028C9D0236A6E
:1040E0002046984794F824305907C2D50023A26986
:1040F000039900950A4420461946FFF7F5FEB8E7F4
:1041000094F8243023F0010384F82430B1E794F8C4
:104110002430039943F0010384F82430A1615B4605
:104120005A4659442046FFF7A5FEA2E794F82430EA
:104130009A07E7D4204600F0F3F89AE7B42D002060
:10414000E82D0020B82D002004ED00E0E42D002033
:10415000002382B001934FF0BF0383F31188BFF3B4
:104160006F8FBFF34F8F019B002BFCD002B07047C5
:104170000B4A13681868203080F30988022080F306
:104180001488BFF36F8F3FBCAE4608BC04BC62B658
:10419000184700BFAFF30080AFF30080AFF300809B
:1041A000A82A002010B5EFF311844FF0BF0383F36A
:1041B0001188BFF36F8FBFF34F8FFFF771FB18B1FB
:1041C0004FF08052024B1A6084F3118810BD00BF7B
:1041D00004ED00E04FF0807340E90213034B40F818
:1041E000202C40F80C3C4038704700BF514100087B
:1041F0007047000010B500240A4B0B481A6842F4BF
:104200007F021A601A6842F07F421A60FDF7CCFD07
:10421000064B1C60FFF7ACFFFFF73CFCFFF798FF75
:10422000204610BD20ED00E0A54100082404002038
:104230004FF0BF0383F31188BFF36F8FBFF34F8F2E
:10424000044A136801331360BFF34F8FBFF36F8FBE
:10425000704700BF24040020034A1368013B136029
:104260000BB983F31188704724040020000000007C
:10427000EFF309800E4B1A6820381060F0C04446F6
:104280004D4656465F46F0C008B572B6FFF702FCD1
:1042900062B60CBC116808681030F0C8A046A94688
:1042A000B246BB4680F309882038F0C8184700BFE3
:1042B000A82A0020704700BF014800F035B800BFB1
:1042C000C875000838B5044643071CBF20F0070432
:1042D0000834FFF7D7FA0F4B1A681AB90E4A22F0C2
:1042E00007021A6041F6F7700C490A6814448442C8
:1042F00005D9FFF74BFB00F019F8002508E0A242B2
:10430000F7D21D680C601544FFF740FB002DF2D07A
:10431000284638BDF02D002000090020F42D002093
:10432000704703689B68184701BEFEE701BEFEE7C1
:104330000130FFF797BB10B50446042000F0D4F914
:104340002060204610BD08B54FF0FF31006800F036
:1043500043FB08B901BEFEE7012008BD08B50068AF
:1043600000F0DAF908B901BEFEE7012008BD00003F
:1043700037B50446084D40F8045B9DB2CDE90020F6
:1043800023462A460548FFF771F9012801D001BEEE
:10439000FEE7204603B030BDE07500082343000867
:1043A000014B036001BEFEE7E07500084FF0FF32ED
:1043B00000F108034360C0E90223036100230360A6
:1043C000704700230361704743689A684B608A60B6
:1043D0009A6851609960036808610133036070470F
:1043E0000A6830B5531C0AD103695A684A60916063
:1043F0008B605960036808610133036030BD00F1D0
:1044000008035C6825689542EFD82346F9E70369FD
:10441000D0E901128A6051605968814208BF5A6030
:10442000002202611A68013A1A601868704710B5D4
:104430000446FFF7FDFEA46BFFF70EFFB4FA84F00D
:10444000400910BD70B51546026C0446866B42B932
:1044500005689DB98068FFF765FCA5600136A66315
:1044600070BD6DB9406801F01BFE6368226C134497
:10447000A2686360934201D3236863600020EDE784
:10448000C06801F00DFE236CE2685B4221681A44AB
:104490008A42E2603EBFA2689B18E360022DEDD124
:1044A0000EB1013EEAE73046D8E703461A6C10B475
:1044B000084662B1D9689C681144A142D96028BFFE
:1044C000196810BC28BFD960D96801F0E9BD10BCDB
:1044D000704770B50446FFF7ABFE94F8455004F101
:1044E00024066DB2002D14DCFF2384F84530FFF75D
:1044F000B3FEFFF79DFE94F8445004F110066DB230
:10450000002D12DCFF2384F84430BDE87040FFF733
:10451000A3BE636A002BE7D03046FFF729FB08B142
:10452000FFF792FB013D6DB2DCE72369002BE9D078
:104530003046FFF71DFB08B1FFF786FB013D6DB26A
:10454000DEE7000038B504460D46FFF771FED4E9FA
:104550000F3043432268D1181B1A1344A160E36053
:104560000021FF23A163626084F8443084F8453061
:1045700095B9236963B104F11000FFF7F9FA38B176
:104580004FF08052094B1A60BFF34F8FBFF36F8F0C
:10459000FFF762FE012038BD04F11000FFF706FFAF
:1045A00004F12400FFF702FFF2E700BF04ED00E092
:1045B00070B50646484348300D46FFF783FE044673
:1045C00068B155B100F148032360C4E90F650121CA
:1045D0002046FFF7B7FF204670BD0346F4E70248C8
:1045E000FFF7A2FEF7E700BFCA7000082DE9FF47FA
:1045F000002604468A461F46B046DFF8E89001923E
:10460000FFF716FEA26BE36B9A4201D3022F19D17A
:104610003A4651462046FFF715FF636A1BB104F185
:104620002400FFF7A5FA38B14FF080522D4B1A60E5
:10463000BFF34F8FBFF36F8FFFF70EFE012004B063
:10464000BDE8F087019D1DB9FFF706FE0020F6E7E3
:1046500016B902A8FFF7C4FAFFF7FEFDFFF712F93B
:10466000FFF7E6FD94F84430FF2B08BF84F8448040
:1046700094F84530FF2B08BF84F84580FFF7ECFD28
:1046800001A902A8FFF7B8FA28BBFFF7D1FDA26B7A
:10469000E36B9A420ED1FFF7DFFD019904F11000A0
:1046A000FFF740FA2046FFF714FFFFF76FF948B114
:1046B0000126A5E7FFF7D0FD2046FFF70AFFFFF729
:1046C00065F9F5E74FF08053C9F80030BFF34F8F1D
:1046D000BFF36F8FECE72046FFF7FBFEFFF756F9BD
:1046E000B4E700BF04ED00E010B502460021012050
:1046F000FFF75EFF044648B1002383600360C36098
:104700001A461946FFF772FF204610BD0148FFF711
:104710000BFEF9E7CA70000838B585680446FFF754
:1047200099FA85420AD1E368013BE36023B91A464E
:1047300019462046FFF75AFF012003E00248FFF721
:10474000F3FD002038BD00BFCA700008F8B505466B
:104750001746EFF311864FF0BF0282F31188BFF3C3
:104760006F8FBFF34F8F806BEA6B904201D3022BA8
:104770001ED195F845401A4664B22846FFF762FEFE
:10478000631C10D16B6A0BB9012009E005F124000C
:10479000FFF7EEF90028F7D0002FF5D001203860A0
:1047A00086F31188F8BD013464B285F84540EBE723
:1047B0000248FFF7B9FD0020F2E700BFCA70000809
:1047C0002DE9F043002604468846374685B0DFF8D9
:1047D000DC900192FFF72CFDA56BD5B14146204638
:1047E000013DFFF762FEA563236963B104F1100088
:1047F000FFF7BEF938B14FF080522C4B1A60BFF36F
:104800004F8FBFF36F8FFFF727FD012005B0BDE885
:10481000F083019D1DB9FFF71FFD0020F6E716B9D3
:1048200002A8FFF7DDF9FFF717FDFFF72BF8FFF7F9
:10483000FFFC94F84430FF2B08BF84F8447094F8D0
:104840004530FF2B08BF84F84570FFF705FD01A92F
:1048500002A8FFF7D1F9F0B92046FFF7E8FDA0B1B3
:10486000019904F12400FFF75DF92046FFF731FEBE
:10487000FFF78CF838B94FF08053C9F80030BFF318
:104880004F8FBFF36F8F0126A4E72046FFF721FE6D
:10489000FFF77CF8F7E72046FFF71BFEFFF776F8F7
:1048A0002046FFF7C4FD0028EDD0B6E704ED00E098
:1048B0002DE9F043002504462F462E4685B0DFF84B
:1048C00014910191FFF7B4FCA36BE3B1013BA36327
:1048D000236813B9FFF79CFAA060236963B104F160
:1048E0001000FFF745F938B14FF08052394B1A608C
:1048F000BFF34F8FBFF36F8FFFF7AEFC0125284644
:1049000005B0BDE8F083DDF80480B8F1000F03D1F5
:10491000FFF7A2FC0025F2E717B902A8FFF760F93C
:10492000FFF79AFCFEF7AEFFFFF782FC94F84430E5
:10493000FF2B08BF84F8446094F84530FF2B08BF74
:1049400084F84560FFF788FC01A902A8FFF754F935
:1049500040BB2046FFF76BFDF0B123683BB9FFF782
:1049600067FCA068FFF78CF90546FFF775FC019915
:1049700004F12400FFF7D6F82046FFF7AAFDFFF761
:1049800005F838B94FF08053C9F80030BFF34F8FA6
:10499000BFF36F8F012795E72046FFF79AFDFEF7DB
:1049A000F5FFF7E72046FFF794FDFEF7EFFF2046FF
:1049B000FFF73DFD0028EDD0002DA0D0FFF738FC1B
:1049C000616A19B1236B1968C1F11F01A068FFF773
:1049D000E1F99DE704ED00E070B5866804460D46F8
:1049E000FFF738F9864205D10125E3680133E3601A
:1049F000284670BD29462046FFF75AFF054618B1E4
:104A0000E3680133E360F3E70148FFF78DFCEFE76C
:104A1000CA70000870B504460D461646FFF708FC3C
:104A200094F84430FF2B04BF002384F8443094F8FA
:104A30004530FF2B04BF002384F84530FFF70CFC02
:104A4000A36B2BB93246294604F12400FFF77AF80C
:104A50002046BDE87040FFF73CBD70477047B0F995
:104A60005C007047B0F960007047000010B5044664
:104A700001211A20FEF70CFD0448FBF7F1FF236823
:104A80002046BDE81040DB6B184700BF58290020C6
:104A900084B0F0B589B06C4607460FAE86E80E00CC
:104AA00011AD0FCD0FC495E8070084E8070004217D
:104AB00096E80C003846FBF7B3FF09B0BDE8F040BC
:104AC00004B070472DE9F04FB1F1000891B00446F1
:104AD00015469946C0F28180002A7EDBC36D4345AE
:104AE0007BDD036E934278DD4FF0010B4FF0000A3F
:104AF0006E4603680AAF9B6B9847394BADF828B0F8
:104B00000793CDE90EAA0FCFCDF820A00FC697E8E6
:104B1000030086E8030007AB0ECB3248FFF7B8FF6F
:104B200051461A20FEF7B4FCA36E48EA0846B34289
:104B300016D051461020FEF7ABFC2A212948FBF77E
:104B400090FF1FFA88F859461020FEF7A1FC414655
:104B50002448FBF793FF41462248FBF78FFFA666E8
:104B6000636E45EA0546B34215D000211020FEF7DA
:104B70008FFC2B211B48FBF774FFADB201211020E5
:104B8000FEF786FC29461748FBF778FF29461548AB
:104B9000FBF774FF666600211020FEF779FC2C21DC
:104BA0001048FBF75EFF01211020FEF771FC1FFA91
:104BB00089F10C48FBF762FF94F876306BB901215C
:104BC0001A20FEF765FC0748FBF74AFF20462368DA
:104BD000DB6B11B0BDE8F04F184711B0BDE8F08FA6
:104BE000005A620258290020002370B590B0CDE928
:104BF0000E33164B6C4607930123ADF828304FF463
:104C000000630AAD0893ADF8181016460FCD0FC417
:104C100095E8030084E8030007AB0ECB0C48FFF7D0
:104C200037FF4FF6FF750A4C5EB1AE42324628BFE1
:104C30002A460023B61A06A992B22046FBF7A6FF21
:104C4000F2E70348FBF70CFF10B070BD005A620298
:104C50005829002000232DE9F04190B0CDE90E3312
:104C6000164B6C4607930123ADF828304FF40063D0
:104C70000AAD08930F4616460FCD0FC495E8030002
:104C800084E8030007AB0ECB0D48FFF701FF4FF69A
:104C9000FF780B4D66B14645344628BF4446394639
:104CA0000123A2B22846361BFBF770FF2744F1E729
:104CB000034810B0BDE8F041FBF7D2BE005A6202D3
:104CC00058290020F8B50025254B044603600F46FF
:104CD0004560058180F8305080F8355080F83650B6
:104CE000056529461A201646FEF79AFB01211A206F
:104CF000FEF7CEFB29461020FEF792FB0121102083
:104D0000FEF7C6FB29461120FEF78AFB0121112080
:104D1000FEF7BEFB4FF48073A4F872304FF080733F
:104D200040F2011263674FF6FF73E7656765266619
:104D3000A665E566A4F8782084F87A50C4E91933AA
:104D4000C4E90355C4E90553C4E90753C4E909524A
:104D5000E562C4E91055C4E912552046F8BD00BF0C
:104D6000F47500082DE9F0434FF0010891B00026DA
:104D70006C468946074603680AAD9B6B9847174BFC
:104D8000ADF828800793CDE90E660FCD08960FC4C5
:104D900095E8030084E8030007AB0ECB1048FFF74B
:104DA00077FE31461A20FEF773FB31461020FEF7DE
:104DB0006FFB49460A48FBF754FE41461020FEF7B8
:104DC00067FB97F876302BB9384611B0BDE8F04351
:104DD000FFF74CBE11B0BDE8F08300BF005A62027D
:104DE000582900202DE9F0434FF0010891B000262A
:104DF0006C468946074603680AAD9B6B9847174B7C
:104E0000ADF828800793CDE90E660FCD08960FC444
:104E100095E8030084E8030007AB0ECB1048FFF7CA
:104E200037FE31461A20FEF733FB41461020FEF7CD
:104E30002FFB49460A48FBF714FE31461A20FEF7BD
:104E400027FB97F876302BB9384611B0BDE8F04310
:104E5000FFF70CBE11B0BDE8F08300BF005A62023C
:104E6000582900202DE9F041036890B09B6B04465F
:104E7000884698472F4B0027079301236D46ADF8CE
:104E800028300AAE0FCECDE90E7708970FC596E809
:104E9000030085E8030007AB0ECB2748FFF7F8FDBA
:104EA00008F0070839461A20FEF7F2FA84F82B803A
:104EB00036212046FFF756FF94F82B30072B0DD8EC
:104EC000DFE803F004242C2E30323436482120460B
:104ED000FFF788FF636DE365A36D23660A20FEF785
:104EE00024FB94F8763053B901211A20FEF7D0FA4A
:104EF0001148FBF7B5FD23682046DB6B98474FF65A
:104F0000FF73C4E9193310B0BDE8F08128212046B1
:104F1000FFF768FFA36DE365636DDEE78821D6E7E1
:104F2000E821F4E7C821D2E76821F0E70821CEE7BD
:104F3000A821ECE7005A6202582900202DE9F0432D
:104F400090F8773091B004461BB301260025EF4A54
:104F500092F8AC3106FA03F3036492F80C3106FAC6
:104F600003F34364EA48FBF70CFD29461A2084F852
:104F70007650FEF755FA31461A20FEF789FA29468F
:104F80001020FEF74DFA31461020FEF781FA84F822
:104F900077504FF0010800256E4601211120FEF7E1
:104FA00077FA0520FEF7AEFA00211120FEF770FA1D
:104FB0001420FEF7A7FA01211120FEF769FA9620C6
:104FC000FEF7A0FA236820469B6B9847D14BADF8BB
:104FD00028800AAF0793CDE90E550FCF08950FC66D
:104FE00097E8030086E8030007AF97E80E00C8487B
:104FF000FFF74EFD29461A20FEF74AFAEF21204618
:10500000FFF7B0FE03212046FFF7ECFE802120468B
:10501000FFF7E8FE02212046FFF7E4FECF212046FD
:10502000FFF7A0FE29462046FFF7DCFEC1212046FF
:10503000FFF7D8FE30212046FFF7D4FEED212046B1
:10504000FFF790FE64212046FFF7CCFE03212046A7
:10505000FFF7C8FE12212046FFF7C4FE812120463B
:10506000FFF7C0FEE8212046FFF77CFE85212046A1
:10507000FFF7B8FE29462046FFF7B4FE7821204608
:10508000FFF7B0FECB212046FFF76CFE392120460A
:10509000FFF7A8FE2C212046FFF7A4FE2946204654
:1050A000FFF7A0FE34212046FFF79CFE0221204698
:1050B000FFF798FEF7212046FFF754FE20212046F7
:1050C000FFF790FEEA212046FFF74CFE29462046D6
:1050D000FFF788FE29462046FFF784FEC0212046C0
:1050E000FFF740FE23212046FFF77CFEC12120462A
:1050F000FFF738FE10212046FFF774FEC521204639
:10510000FFF730FE3E212046FFF76CFE28212046A7
:10511000FFF768FEC7212046FFF724FE86212046C0
:10512000FFF760FE36212046FFF71CFE482120468F
:10513000FFF758FE3A212046FFF714FE552120467E
:10514000FFF750FEB1212046FFF70CFE294620460E
:10515000FFF748FE13212046FFF744FEB621204604
:10516000FFF700FE08212046FFF73CFE8221204683
:10517000FFF738FE27212046FFF734FEF2212046B4
:10518000FFF7F0FD29462046FFF72CFE262120469A
:10519000FFF7E8FD41462046FFF724FEE0212046C8
:1051A000FFF7E0FD0F212046FFF71CFE31212046CE
:1051B000FFF718FE2B212046FFF714FE0C21204696
:1051C000FFF710FE0E212046FFF70CFE08212046B7
:1051D000FFF708FE4E212046FFF704FEF12120468E
:1051E000FFF700FE37212046FFF7FCFD0721204690
:1051F000FFF7F8FD10212046FFF7F4FD03212046BC
:10520000FFF7F0FD0E212046FFF7ECFD09212046B7
:10521000FFF7E8FD29462046FFF7E4FDE12120469F
:10522000FFF7A0FD29462046FFF7DCFD0E212046B2
:10523000FFF7D8FD14212046FFF7D4FD03212046B7
:10524000FFF7D0FD11212046FFF7CCFD07212046B6
:10525000FFF7C8FD31212046FFF7C4FDC1212046DC
:10526000FFF7C0FD48212046FFF7BCFD082120467E
:10527000FFF7B8FD0F212046FFF7B4FD0C212046B3
:10528000FFF7B0FD31212046FFF7ACFD3621204667
:10529000FFF7A8FD0F212046FFF7A4FD11212046AE
:1052A000FFF760FD94F8763053B941461A20FEF7B7
:1052B000EFF81748FBF7D4FB23682046DB6B9847D1
:1052C0004FF001094FF000086D467820FEF71AF9FB
:1052D000236820469B6B98470E4BADF828900AAE8A
:1052E0000793CDE90E880FCECDF820800FC596E844
:1052F000030085E80300064897E80E00FFF7C8FBA7
:1053000041461A20FEF7C4F806E000BF106E000800
:1053100058290020005A620229212046FFF722FD69
:1053200094F8763053B949461A20FEF7B1F8074889
:10533000FBF796FB23682046DB6B9847204694F8E2
:105340002B1011B0BDE8F043FFF78CBD58290020A9
:10535000C0E90312704700002DE9F04188464FF67E
:10536000FF711F4616461D4CC0E91911002110207F
:10537000069DFEF78DF82A212046FBF772FB0121DE
:105380001020FEF785F81FFA88F12046FBF776FB20
:10539000B9B22046FBF772FB00211020FEF778F827
:1053A0002B212046FBF75DFB01211020FEF770F852
:1053B000B1B22046FBF762FBA9B22046FBF75EFBC9
:1053C00000211020FEF764F82C212046FBF749FB52
:1053D000BDE8F04101211020FEF75AB858290020FD
:1053E0002DE9F04F012791B000266C46054688460E
:1053F00091469A460368DDF868B09B6B98471A4B54
:10540000ADF828700DF1280C0793CDE90E66BCE8C5
:105410000F0008960FC49CE8030084E8030007AB64
:105420000ECB1248FFF734FB31461A20FEF730F856
:105430005346CDF800B04A4641462846FFF78CFF58
:1054400095F876306BB939461A20FEF721F80748EF
:10545000FBF706FB28462B68DB6B11B0BDE8F04F6D
:10546000184711B0BDE8F08F005A62025829002099
:105470002DE9F04F4FF0010991B000276D46984695
:10548000036804469B6B8A46934698471C4BADF8CD
:1054900028900AAE0793CDE90E770FCE08970FC577
:1054A00096E8030085E8030007AB0ECB1548FFF72D
:1054B000EFFA39461A20FDF7EBFFB8F1000F03D0E1
:1054C00094F8758084F875905A4651462046FFF747
:1054D000C1FB94F8763084F875806BB901211A20ED
:1054E000FDF7D6FF0748FBF7BBFA20462368DB6BC6
:1054F00011B0BDE8F04F184711B0BDE8F08F00BF04
:10550000005A62025829002013B50191016E026809
:105510000091546A0022C36D1146A04702B010BD2D
:105520002DE9F04FB1F1000A9DB0054616461F4621
:10553000DDF898B061DBC36D53455EDD036E9342C9
:105540005BDD002E3A44BCBF002617469342B8BF2D
:105550009F1B002F51DD4FF000084FF00109036839
:1055600013AC9B6B9847264BADF834901B68CDF875
:105570002C800993234B0DF1280C0A93BCE80F00F3
:105580000FC4CDE91188BCE80F000FC4DCF800306F
:105590000DF1540C23606C46BCE80F000FC49CE86E
:1055A000070084E8070013AB0CCB04210998FBF734
:1055B00037FA41461A20FDF76BFFF319013B0093C0
:1055C0003246534651462846FFF7C6FE3A461FFA72
:1055D0008BF12846FFF708FB95F876306BB9494602
:1055E0001A20FDF755FF0998FBF73AFA28462B6871
:1055F000DB6B1DB0BDE8F04F18471DB0BDE8F08F64
:1056000034760008005A62022DE9F04F1646C26D4A
:105610009DB08A420446DDE9268B0D461F4674DDA7
:10562000036EB34271DDC8190029BCBF07460025CF
:10563000002E06EB0801BCBF002688468242B8BF98
:10564000571B8B42B8BFA3EB0608002F5DDDB8F1F6
:10565000000F5ADD4FF000094FF0010A2368204681
:105660009B6B98472A4BADF834A01B68CDF82C9063
:105670000993284B0DF14C0C0A930DF1280EBEE84E
:105680000F00ACE80F00CDE91199BEE80F00ACE8BF
:105690000F00DEF800300DF1540ECCF80030EC466F
:1056A000BEE80F00ACE80F009EE807008CE807009A
:1056B00013AB0CCB04210998FBF7B2F949461A2029
:1056C000FDF7E6FE06EB0802013AEB19013B0092FA
:1056D000294632462046FFF73FFE08FB07F21FFA35
:1056E0008BF12046FFF780FA94F876306BB951467B
:1056F0001A20FDF7CDFE0998FBF7B2F92046236882
:10570000DB6B1DB0BDE8F04F18471DB0BDE8F08F52
:1057100034760008005A62022DE9F04FB2F1000918
:105720009DB005460E461F46DDF898B062DBC36D9E
:105730008B425FDD026E4A455CDD002901EB07020A
:10574000BCBF002617469342B8BF9F1B002F51DDF8
:105750004FF000084FF0010A036813AC9B6B9847A9
:10576000264BADF834A01B68CDF82C800993244B50
:105770000DF1280C0A93BCE80F000FC4CDE9118885
:10578000BCE80F000FC4DCF800300DF1540C2360AE
:105790006C46BCE80F000FC49CE8070084E80700D3
:1057A00013AB0CCB04210998FBF73AF941461A20B8
:1057B000FDF76EFEF319013B4A4631462846CDF807
:1057C0000090FFF7C9FD3A461FFA8BF12846FFF714
:1057D0000BFA95F876306BB951461A20FDF758FE52
:1057E0000998FBF73DF928462B68DB6B1DB0BDE837
:1057F000F04F18471DB0BDE8F08F00BF34760008A9
:10580000005A62022DE9F04F144601221F4685B06E
:1058100080F876200546DDE90E38181B7A1A002834
:10582000B8BF4042002AB8BF5242904205DD3E4612
:105830001F4633460E4621463446B94205DD26460C
:105840001C4633460E46394637461E1B002EB8BF4F
:1058500076429C42ACBF4FF0FF330123A7EB010A15
:105860009042039602934FEA6A0689464FF000037E
:105870003CDDB9451FDC039A0133B61A0FD5012B65
:1058800056442A680ED1D2F80CB043460A46284640
:105890002146D847029B09F101011C44002309F16C
:1058A0000109E6E7CDF80080D2F81CB028460A4688
:1058B0002146D847EEE73BB12A68CDF80080D6698B
:1058C0000A4621462846B0470023012185F8763054
:1058D0001A20FDF7DDFD194B1868FBF7C1F82846C3
:1058E0002B68DB6B05B0BDE8F04F1847B9451DDCF0
:1058F000039A0133B61A0ED5012B56442A680DD1EE
:10590000D2F80CB0434622462846D847029B09F1FC
:1059100001011C44002309F10109E7E7CDF80080EB
:10592000D2F820B028462246D847EFE7002BCBD04C
:105930002A68CDF80080166A2246C3E7347600084C
:105940002DE9F74303EB01091D46036804465B6B31
:105950000F4690460A9E9847814506DB23682046FD
:105960005B6B9847C51B002D24DD236820461B6B0D
:10597000984706EB0809814507DB236820461B6B27
:105980009847A0EB0806002E14DDEB1906EB080281
:1059900000923946013B42462046FFF721FD002791
:1059A000BE4207DD00232A460B992046FFF760FD23
:1059B0000137F5E7002003B0BDE8F0832DE9F04F93
:1059C00089B0149F8046F8689346027A45689B1A0E
:1059D0000C22DBB25A438946AC180168AA582679D2
:1059E0008A18059262790392D7E9012551000022B5
:1059F000914205DDDDF84CC025F812C00132F7E711
:105A0000008939680344202B94F806A0ABEB01020F
:105A100001950AD102310091534649464046FFF7AD
:105A20008FFF504609B0BDE8F08F94F9083040462A
:105A30001944009153464946FFF782FF94F9082024
:105A4000039B5242D21A911CA379ABEB0202009144
:105A5000019549464046FFF773FF00234FF4FC6170
:105A60007A6852009A4203DD25F813100133F9E7F2
:105A700094F90820A3795A4494F907B0039906EBE6
:105A80000B072BEAEB7A1144DF1B05EB4A0A4B4468
:105A90000091013B494627EAE77740460AEB460674
:105AA000FFF79EFC06EB47030027B94604935B1BF8
:105AB0005B1007930697039B9F4230DA00235B45F8
:105AC00004DA139A25F813200133F8E753469E426F
:105AD00015D0B9F1000F06D14FF08009059A12F8E0
